:100000000C942A000C9447000C9447000C94470071
:100010000C9447000C9447000C9447000C94470044
:100020000C9447000C9447000C9447000C94470034
:100030000C9447000C9447000C9447000C94470024
:100040000C9447000C9447000C9447000C94470014
:100050000C94470011241FBECFE5D8E0DEBFCDBF12
:1000600010E0A0E6B0E0E4EFF0E302C005900D92EE
:10007000A63AB107D9F711E0A6EAB0E001C01D9297
:10008000A337B107E1F70E94A3050C9478180C94EC
:100090000000EF92FF920F931F937B018C0120E0F1
:1000A00030E040E05FE40E94490388238CF0C801FF
:1000B000B70120E030E040E05FE40E94C1010E940F
:1000C000A9039B01AC01205030404040504806C07D
:1000D000C801B7010E94A9039B01AC01B901CA0183
:1000E0001F910F91FF90EF900895A0E0B0E0EBE733
:1000F000F0E00C941018DC012B01FA019C91923075
:1001000008F439C1EB018881823008F433C194309E
:1001100069F4843009F02FC111969C91119789815F
:10012000981709F428C1ADE9B0E025C1843009F47D
:1001300021C18230A9F4923009F01DC19A01AD01AC
:1001400088E0EA010990AE01E90109929E0181501F
:10015000C1F7E201898111969C918923818308C1AD
:10016000923009F407C112962D903C901397EB0141
:100170008A819B811496AD90BD90CD90DC901797AD
:10018000EC80FD800E811F819101281B390BB90184
:1001900037FF04C066277727621B730B6032710537
:1001A0000CF061C0121613066CF537014801062EDB
:1001B00004C096948794779467940A94D2F721E0C8
:1001C00030E040E050E004C0220F331F441F551FB1
:1001D0006A95D2F721503040404050402E213F21B7
:1001E00040235123211531054105510521F021E01E
:1001F00030E040E050E079018A01E628F72808293C
:1002000019293CC0232BD1F1260E371E350146019A
:10021000062E04C096948794779467940A94D2F734
:1002200021E030E040E050E004C0220F331F441FC3
:10023000551F6A95D2F721503040404050402A2146
:100240003B214C215D21211531054105510521F04E
:1002500021E030E040E050E059016A01A628B728CB
:10026000C828D9280BC0821593052CF01C01AA249C
:10027000BB24650103C0EE24FF24870111969C91E5
:10028000D20111968C91981709F445C0992339F041
:10029000A80197012A193B094C095D0906C0A6016E
:1002A00095012E193F09400B510B57FD08C01182D3
:1002B0003382228224833583468357831DC081E0A5
:1002C00081833382228288279927DC01821B930B4A
:1002D000A40BB50B84839583A683B7830DC0220F2F
:1002E000331F441F551F24833583468357838281E0
:1002F000938101979383828324813581468157813D
:10030000DA01C9010197A109B1098F5F9F4FAF4F72
:10031000BF4328F30BC0918333822282EA0CFB1C7B
:100320000C1D1D1DE482F5820683178383E0808304
:10033000248135814681578157FF1AC0C901AA27F8
:1003400097FDA095BA2F81709070A070B0705695EF
:10035000479537952795822B932BA42BB52B848318
:100360009583A683B7838281938101969383828349
:10037000DF0101C0D201CD01CDB7DEB7E2E10C94BF
:100380002C18A0E2B0E0E7ECF1E00C941C186983B3
:100390007A838B839C832D833E834F835887E9E048
:1003A000EE2EF12CEC0EFD1ECE010196B7010E943F
:1003B000D2048E010F5E1F4FCE010596B8010E9438
:1003C000D2048A8991E089278A8BC701B801AE01DE
:1003D000475E5F4F0E9475000E94FD03A096E6E015
:1003E0000C943818A0E2B0E0E8EFF1E00C941C188F
:1003F00069837A838B839C832D833E834F835887C5
:10040000F9E0EF2EF12CEC0EFD1ECE010196B701A6
:100410000E94D2048E010F5E1F4FCE010596B801D7
:100420000E94D204C701B801AE01475E5F4F0E942F
:1004300075000E94FD03A096E6E00C943818A0E237
:10044000B0E0E5E2F2E00C94101869837A838B83C4
:100450009C832D833E834F835887CE010196BE0136
:10046000675F7F4F0E94D204CE010596BE016F5E8A
:100470007F4F0E94D2049985923088F0898982301A
:10048000C8F0943019F4823051F404C0843029F457
:10049000923081F48DE990E0C6C0923049F420E0BA
:1004A0009A858A89981321E02A87CE010996BBC0D4
:1004B000823049F420E09A858A89981321E02A8BBA
:1004C000CE014196B0C02D843E844F8458886D88FB
:1004D0007E888F88988CEE24FF248701AA24BB2471
:1004E000650140E050E060E070E0E0E0F0E0C10174
:1004F00081709070892BE9F0E60CF71C081D191D1E
:100500009A01AB012A0D3B1D4C1D5D1D80E090E062
:10051000A0E0B0E0E614F7040805190520F481E036
:1005200090E0A0E0B0E0BA01A901480F591F6A1F8E
:100530007B1FAA0CBB1CCC1CDD1C97FE08C081E0F5
:1005400090E0A0E0B0E0A82AB92ACA2ADB2A3196B6
:10055000E032F10549F0660C771C881C991C569412
:10056000479437942794C3CFFA85EA892B893C892D
:100570008B859C85280F391F2E5F3F4F17C0CA01FE
:1005800081709070892B61F016950795F794E79428
:1005900080E090E0A0E0B0E8E82AF92A0A2B1B2BC3
:1005A00076956795579547952F5F3F4F77FDE7CF36
:1005B0000CC0440F551F661F771F17FD4160EE0CDE
:1005C000FF1C001F111F21503040403090E05907A0
:1005D00090E0690790E4790760F32B8F3C8FDB0193
:1005E000CA018F779070A070B07080349105A1051A
:1005F000B10561F447FD0AC0E114F10401051105DC
:1006000029F0405C5F4F6F4F7F4F40781A8EFE1786
:1006100011F081E08A8F4D8F5E8F6F8F78A383E01A
:10062000898FCE0149960E94FD03A096E2E10C94C9
:100630002C18A8E1B0E0EFE1F3E00C941C186983FA
:100640007A838B839C832D833E834F83588789E0F5
:10065000E82EF12CEC0EFD1ECE010196B7010E9492
:10066000D2048E010F5E1F4FCE010596B8010E9485
:10067000D2048985823040F08989823028F0C70110
:10068000B8010E944A0501C08FEF6896E6E00C941D
:100690003818A8E1B0E0EFE4F3E00C941C1869838B
:1006A0007A838B839C832D833E834F83588789E095
:1006B000E82EF12CEC0EFD1ECE010196B7010E9432
:1006C000D2048E010F5E1F4FCE010596B8010E9425
:1006D000D2048985823040F08989823028F0C701B0
:1006E000B8010E944A0501C08FEF6896E6E00C94BD
:1006F0003818A8E1B0E0EFE7F3E00C941C18698328
:100700007A838B839C832D833E834F83588789E034
:10071000E82EF12CEC0EFD1ECE010196B7010E94D1
:10072000D2048E010F5E1F4FCE010596B8010E94C4
:10073000D2048985823040F08989823028F0C7014F
:10074000B8010E944A0501C081E06896E6E00C9479
:100750003818ACE0B0E0EFEAF3E00C9420186983BD
:100760007A838B839C83CE010196BE016B5F7F4FA2
:100770000E94D2048D81823061F1823050F1843048
:1007800021F48E81882351F12EC02F81388537FDC9
:1007900020C06E812F3131051CF06623F9F023C093
:1007A0008EE190E0821B930B29853A854B855C8511
:1007B00004C056954795379527958A95D2F76623B5
:1007C000B1F050954095309521953F4F4F4F5F4F79
:1007D0000EC020E030E040E050E009C02FEF3FEFD6
:1007E0004FEF5FE704C020E030E040E050E8B9019F
:1007F000CA012C96E2E00C943C18DF92EF92FF9233
:100800000F931F93FC01E480F58006811781D1804E
:100810008081823048F480E090E0A0E1B0E0E82AF6
:10082000F92A0A2B1B2BA5C0843009F49FC0823003
:1008300021F4EE24FF24870105C0E114F104010531
:10084000110519F4E0E0F0E096C0628173819FEF3A
:10085000623879070CF05BC022E83FEF261B370BAC
:100860002A3131052CF020E030E040E050E02AC091
:10087000B801A701022E04C0769567955795479554
:100880000A94D2F781E090E0A0E0B0E004C0880FC5
:10089000991FAA1FBB1F2A95D2F70197A109B10979
:1008A0008E219F21A023B1230097A105B10521F03E
:1008B00081E090E0A0E0B0E09A01AB01282B392B59
:1008C0004A2B5B2BDA01C9018F779070A070B07052
:1008D00080349105A105B10539F427FF09C0205CDA
:1008E0003F4F4F4F5F4F04C0215C3F4F4F4F5F4F13
:1008F000E0E0F0E02030A0E03A07A0E04A07A0E402
:100900005A0710F0E1E0F0E079018A0127C0603871
:10091000710564F5FB01E158FF4FD801C7018F77DE
:100920009070A070B07080349105A105B10539F4C4
:10093000E7FE0DC080E490E0A0E0B0E004C08FE3EB
:1009400090E0A0E0B0E0E80EF91E0A1F1B1F17FFA1
:1009500005C016950795F794E794319687E01695AC
:100960000795F794E7948A95D1F705C0EE24FF2404
:100970008701EFEFF0E06E2F679566276795902F60
:100980009F77D794DD24D7948E2F8695492F462BB9
:10099000582F5D29B701CA011F910F91FF90EF9069
:1009A000DF900895FC01DB01408151812281622F9B
:1009B0006F7770E0221F2227221F9381892F880FD3
:1009C000822B282F30E0991F9927991F11969C930D
:1009D000119721153105A9F54115510561057105DD
:1009E00011F482E037C082E89FEF13969C938E93B8
:1009F00012979A01AB0167E0220F331F441F551F66
:100A00006A95D1F783E08C930DC0220F331F441FEA
:100A1000551F12968D919C911397019713969C9355
:100A20008E931297203080E0380780E0480780E4FA
:100A3000580758F314962D933D934D935C93179755
:100A400008952F3F310579F4411551056105710570
:100A500019F484E08C93089564FF03C081E08C93C3
:100A600012C01C9210C02F57304013963C932E9307
:100A7000129783E08C9387E0440F551F661F771F02
:100A80008A95D1F7706414964D935D936D937C9322
:100A9000179708951F93DC01FB019C91923008F495
:100AA00047C08081823008F443C0943051F41196DD
:100AB0001C91843099F58181682F70E0611B710968
:100AC0003FC0843021F0923031F48230B9F181811D
:100AD000882389F12DC011961C9111978230F1F075
:100AE00081811817D9F412962D913C911397828128
:100AF00093818217930794F028173907BCF0149656
:100B00008D919D910D90BC91A02D248135814681C0
:100B10005781281739074A075B0718F4112341F05A
:100B20000AC082179307A407B50740F4112319F0F0
:100B300061E070E005C06FEF7FEF02C060E070E041
:100B4000CB011F910895DF93CF93CDB7DEB72E97DA
:100B50000FB6F894DEBF0FBECDBF0E94900D20E609
:100B600030E080E060E0A9010E94A31781E060E02E
:100B70000E9461170E945006909372018093710148
:100B800080E090E0AAEFB3E48B879C87AD87BE87B7
:100B90006B857C858D859E8520E030E04AE755E4B5
:100BA0000E941F02DC01CB018F839887A987BA8737
:100BB0006F81788589859A8520E030E040E85FE3A1
:100BC0000E94790388232CF481E090E09E838D833A
:100BD0003FC06F81788589859A8520E03FEF4FE798
:100BE00057E40E94190318164CF56B857C858D859A
:100BF0009E8520E030E040E251E40E941F02DC01CB
:100C0000CB01BC01CD010E944900DC01CB019E83D8
:100C10008D830FC080E991E09C838B838B819C81C5
:100C20000197F1F79C838B838D819E8101979E8331
:100C30008D838D819E81009769F714C06F817885BF
:100C400089859A850E944900DC01CB019E838D83B2
:100C50008D819E819A83898389819A810197F1F799
:100C60009A83898381E790E00E9438172091A7003A
:100C700089EA90E0622F0E9489070E94BC170E94B7
:100C8000FC0B8D30E1F781E060E00E94611783E7A3
:100C900090E00E94381781E060E00E946117EFCF7A
:100CA000DF93CF93CDB7DEB760970FB6F894DEBF72
:100CB0000FBECDBF0E94FC0B8093A8008091A800BE
:100CC0008D3061F481E060E00E94611783E790E07D
:100CD0000E94381781E060E00E9461178091A800AF
:100CE0008D3399F48091A700882F90E0FC01E7559F
:100CF000FF4F108289EA90E060960FB6F894DEBF4D
:100D00000FBECDBFCF91DF9108958091A8008A30AA
:100D1000B0F48091A700873C08F06EC08091A700D6
:100D2000282F30E08091A800805DF901E755FF4F42
:100D300080838091A7008F5F8093A7005DC0809122
:100D4000A700873C08F058C08091A800282F30E009
:100D5000388B2F878F8598898B329105B1F02F853D
:100D600038892C32310534F48F8598898A3291057F
:100D700001F133C02F8538892D32310581F08F85FF
:100D800098898F329105F9F028C08091A700882FAB
:100D900090E0FC01E755FF4F8BE2808328C08091F3
:100DA000A700882F90E0FC01E755FF4F8DE280837C
:100DB0001EC08091A700882F90E0FC01E755FF4FEF
:100DC0008AE2808314C08091A700882F90E0FC0104
:100DD000E755FF4F8FE280830AC08091A700882FDC
:100DE00090E02091A800FC01E755FF4F20838091FF
:100DF000A7008F5F8093A7008091A8000E947307CF
:100E000080E090E0AAEFB3E48B879C87AD87BE8734
:100E10006B857C858D859E8520E030E04AE755E432
:100E20000E941F02DC01CB018F839887A987BA87B4
:100E30006F81788589859A8520E030E040E85FE31E
:100E40000E94790388232CF481E090E09E838D83B7
:100E50003FC06F81788589859A8520E03FEF4FE715
:100E600057E40E94190318164CF56B857C858D8517
:100E70009E8520E030E040E251E40E941F02DC0148
:100E8000CB01BC01CD010E944900DC01CB019E8356
:100E90008D830FC080E991E09C838B838B819C8143
:100EA0000197F1F79C838B838D819E8101979E83AF
:100EB0008D838D819E81009769F7FCCE6F81788547
:100EC00089859A850E944900DC01CB019E838D8330
:100ED0008D819E819A83898389819A810197F1F717
:100EE0009A838983E7CEDF93CF930F92CDB7DEB796
:100EF000898389818A3030F48981882F90E00E942B
:100F0000BC1703C089810E94BD120F90CF91DF9161
:100F10000895DF93CF93CDB7DEB762970FB6F894FD
:100F2000DEBF0FBECDBF9D878C876E871B861A865E
:100F30001986188681E090E09F838E83F5C0EC854A
:100F4000FD858081882F90E0C0978A309105B8F4A4
:100F5000888599859C01220F331FC901880F991F2D
:100F6000880F991F280F391FEC85FD858081882FF8
:100F700090E0C097820F931F99878887CDC0EC853A
:100F8000FD8580818B3229F0EC85FD8580818D3255
:100F900039F52E813F8188859985A901489F900167
:100FA000499F300D589F300D11248A859B85820FF3
:100FB000931F9B878A8719861886EC85FD8580811B
:100FC0008B3229F481E090E09A8B898B04C04FEF3B
:100FD0005FEF5A8B498B89899A899F838E839CC046
:100FE000EC85FD8580818A3231F0EC85FD8580813C
:100FF0008F3209F091C0EC85FD8580818D838C85D1
:101000009D8501969D878C878E8581508E871C8259
:101010001B8281E090E09A838983EC85FD85808145
:101020008D3259F58FEF9FEF9A8389838C859D854B
:1010300001969D878C878E8581508E871EC08B81FF
:101040009C819C01220F331FC901880F991F880FB3
:10105000991F280F391FEC85FD858081882F90E02E
:10106000C097820F931F9C838B838C859D850196EF
:101070009D878C878E8581508E87EC85FD8580814C
:10108000882F90E0C0978A30910518F48E858823C8
:10109000B1F68D818A32C9F429813A818B819C8194
:1010A000A901489F9001499F300D589F300D112490
:1010B00088859985AC01429FC001439F900D529F46
:1010C000900D1124998788872FC08D818F3261F50B
:1010D0008B819C810097A9F029813A818B819C8129
:1010E000A901489F9001499F300D589F300D112450
:1010F00088859985B9010E94E917CB01998788876E
:1011000013C081E060E00E94611784E890E00E94D3
:101110003817188A1F8627C08C859D8501969D8764
:101120008C878E8581508E87EC85FD858081882314
:1011300021F08E85882309F002CF2E813F8188859A
:101140009985A901489F9001499F300D589F300D06
:1011500011248A859B85820F931F9B878A878A85A6
:101160009B85988B8F878F85988962960FB6F894A8
:10117000DEBF0FBECDBFCF91DF910895DF93CF9338
:1011800000D000D00F92CDB7DEB789836A834B833E
:101190008A81883008F0D5C08981843008F0D1C0B8
:1011A0008981282F30E03D832C838C819D81813083
:1011B000910509F443C02C813D81223031052CF486
:1011C0008C819D81009771F0BCC02C813D812230C3
:1011D000310509F45FC08C819D818330910509F44C
:1011E00085C0AFC08B818130A1F4AAE3B0E0EAE30F
:1011F000F0E08081482F8A81282F30E081E090E064
:10120000022E02C0880F991F0A94E2F7842B8C9358
:1012100098C0AAE3B0E0EAE3F0E08081482F8A8139
:10122000282F30E081E090E0022E02C0880F991F45
:101230000A94E2F7809584238C9383C08B8181305C
:10124000A1F4A7E3B0E0E7E3F0E08081482F8A81D2
:10125000282F30E081E090E0022E02C0880F991F15
:101260000A94E2F7842B8C936CC0A7E3B0E0E7E329
:10127000F0E08081482F8A81282F30E081E090E0E3
:10128000022E02C0880F991F0A94E2F780958423EA
:101290008C9357C08B818130A1F4A4E3B0E0E4E3E8
:1012A000F0E08081482F8A81282F30E081E090E0B3
:1012B000022E02C0880F991F0A94E2F7842B8C93A8
:1012C00040C0A4E3B0E0E4E3F0E08081482F8A81ED
:1012D000282F30E081E090E0022E02C0880F991F95
:1012E0000A94E2F7809584238C932BC08B81813004
:1012F000A1F4A1E3B0E0E1E3F0E08081482F8A812E
:10130000282F30E081E090E0022E02C0880F991F64
:101310000A94E2F7842B8C9314C0A1E3B0E0E1E3DC
:10132000F0E08081482F8A81282F30E081E090E032
:10133000022E02C0880F991F0A94E2F78095842339
:101340008C930F900F900F900F900F90CF91DF9193
:101350000895DF93CF9300D000D00F92CDB7DEB7C2
:1013600089836A834B838A81883008F0D5C089815C
:10137000843008F0D1C08981282F30E03D832C8350
:101380008C819D818130910509F443C02C813D8180
:10139000223031052CF48C819D81009771F0BCC006
:1013A0002C813D812230310509F45FC08C819D8103
:1013B0008330910509F485C0AFC08B818130A1F4E1
:1013C000ABE3B0E0EBE3F0E08081482F8A81282F87
:1013D00030E081E090E0022E02C0880F991F0A944D
:1013E000E2F7842B8C9398C0ABE3B0E0EBE3F0E042
:1013F0008081482F8A81282F30E081E090E0022E02
:1014000002C0880F991F0A94E2F7809584238C9379
:1014100083C08B818130A1F4A8E3B0E0E8E3F0E081
:101420008081482F8A81282F30E081E090E0022ED1
:1014300002C0880F991F0A94E2F7842B8C936CC02A
:10144000A8E3B0E0E8E3F0E08081482F8A81282F0C
:1014500030E081E090E0022E02C0880F991F0A94CC
:10146000E2F7809584238C9357C08B818130A1F45F
:10147000A5E3B0E0E5E3F0E08081482F8A81282FE2
:1014800030E081E090E0022E02C0880F991F0A949C
:10149000E2F7842B8C9340C0A5E3B0E0E5E3F0E0F5
:1014A0008081482F8A81282F30E081E090E0022E51
:1014B00002C0880F991F0A94E2F7809584238C93C9
:1014C0002BC08B818130A1F4A2E3B0E0E2E3F0E035
:1014D0008081482F8A81282F30E081E090E0022E21
:1014E00002C0880F991F0A94E2F7842B8C9314C0D2
:1014F000A2E3B0E0E2E3F0E08081482F8A81282F68
:1015000030E081E090E0022E02C0880F991F0A941B
:10151000E2F7809584238C930F900F900F900F909B
:101520000F90CF91DF910895DF93CF9300D000D03B
:101530000F92CDB7DEB78A836B8319828B81883097
:1015400008F084C08A81843008F080C08A81282F06
:1015500030E03D832C834C815D814130510579F130
:101560008C819D818230910534F42C813D8121153F
:10157000310569F06BC04C815D8142305105B9F194
:101580008C819D818330910509F449C05FC0E9E3F6
:10159000F0E08081282F30E08B81882F90E0A90136
:1015A00002C0559547958A95E2F7CA0181709070FF
:1015B000882319F081E0898349C0198247C0E6E396
:1015C000F0E08081282F30E08B81882F90E0A90106
:1015D00002C0559547958A95E2F7CA0181709070CF
:1015E000882319F081E0898331C019822FC0E3E399
:1015F000F0E08081282F30E08B81882F90E0A901D6
:1016000002C0559547958A95E2F7CA01817090709E
:10161000882319F081E0898319C0198217C0E0E39B
:10162000F0E08081282F30E08B81882F90E0A901A5
:1016300002C0559547958A95E2F7CA01817090706E
:10164000882319F081E0898301C0198289810F9074
:101650000F900F900F900F90CF91DF910895DF932F
:10166000CF9300D000D0CDB7DEB789836A8389815C
:10167000843090F58981282F30E03C832B838B8147
:101680009C8181309105D1F02B813C812230310544
:101690002CF48B819C81009761F01EC02B813C81D2
:1016A0002230310581F08B819C818330910581F05E
:1016B00013C0EAE3F0E08A8180830EC0E7E3F0E044
:1016C0008A81808309C0E4E3F0E08A81808304C0DA
:1016D000E1E3F0E08A8180830F900F900F900F90EC
:1016E000CF91DF910895DF93CF9300D000D0CDB795
:1016F000DEB789836A838981843090F58981282FB8
:1017000030E03C832B838B819C8181309105D1F02B
:101710002B813C81223031052CF48B819C810097F8
:1017200061F01EC02B813C812230310581F08B811C
:101730009C818330910581F013C0EBE3F0E08A8156
:1017400080830EC0E8E3F0E08A81808309C0E5E38E
:10175000F0E08A81808304C0E2E3F0E08A81808344
:101760000F900F900F900F90CF91DF910895DF931E
:10177000CF9300D000D0CDB7DEB78A8319828A819B
:10178000843090F58A81282F30E03C832B838B8135
:101790009C8181309105D1F02B813C812230310533
:1017A0002CF48B819C81009761F01EC02B813C81C1
:1017B0002230310581F08B819C818330910581F04D
:1017C00013C0E9E3F0E0808189830EC0E6E3F0E036
:1017D0008081898309C0E3E3F0E08081898304C0CC
:1017E000E0E3F0E08081898389810F900F900F9072
:1017F0000F90CF91DF910895DF93CF93CDB7DEB7F0
:1018000060970FB6F894DEBF0FBECDBF81E064E0F5
:1018100040E00E94BE0881E065E040E00E94BE0812
:1018200081E066E040E00E94BE0881E067E040E0C1
:101830000E94BE0883E062E040E00E94BE0883E0B0
:1018400063E040E00E94BE0883E064E040E00E9464
:10185000BE0883E065E040E00E94BE081F86B4C079
:101860008F85982F9C5F81E0692F41E00E94BE0820
:101870008F85982F9C5F81E0692F40E00E94A90925
:10188000188A22C08889982F9E5F83E0692F0E9462
:10189000940A8823B1F48F85882F90E0880F991FD0
:1018A000880F991F982F8889890F8F5F0E94E90CF4
:1018B00060960FB6F894DEBF0FBECDBFCF91DF911B
:1018C000089588898F5F888B88898430D8F28F85C6
:1018D000982F9C5F81E0692F40E00E94BE0880E065
:1018E00090E0A0EAB0E48B879C87AD87BE876B85CC
:1018F0007C858D859E8520E030E04AE755E40E9496
:101900001F02DC01CB018F839887A987BA876F817B
:10191000788589859A8520E030E040E85FE30E9481
:10192000790388232CF481E090E09E838D833FC06F
:101930006F81788589859A8520E03FEF4FE757E4EE
:101940000E94190318164CF56B857C858D859E8544
:1019500020E030E040E251E40E941F02DC01CB01B4
:10196000BC01CD010E944900DC01CB019E838D8327
:101970000FC080E991E09C838B838B819C810197D0
:10198000F1F79C838B838D819E8101979E838D834C
:101990008D819E81009769F714C06F817885898554
:1019A0009A850E944900DC01CB019E838D838D8145
:1019B0009E819A83898389819A810197F1F79A831D
:1019C00089838F858F5F8F878F85843008F448CF18
:1019D00045CFDF93CF9300D000D0CDB7DEB78A8359
:1019E00019828A81282F30E03C832B838B819C8154
:1019F0008830910509F470C02B813C812930310574
:101A00005CF58B819C818430910509F459C02B8150
:101A10003C81253031059CF48B819C81823091057D
:101A200009F448C02B813C81233031050CF045C0BE
:101A30008B819C818130910509F439C067C02B816D
:101A40003C812630310509F441C08B819C8187306F
:101A500091050CF03EC037C02B813C812C30310504
:101A600009F446C08B819C818D3091055CF42B81FB
:101A70003C812A303105B1F18B819C818B309105FD
:101A8000A4F52DC02B813C812E303105B9F18B811D
:101A90009C818E3091057CF12B813C812F3031056A
:101AA00079F18B819C818031910569F12FC087E0AC
:101AB00089832EC088E089832BC089E0898328C070
:101AC0008FE2898325C084E0898322C085E08983F1
:101AD0001FC086E089831CC08AE2898319C081E027
:101AE000898316C082E0898313C083E0898310C094
:101AF0008DE289830DC08DE089830AC0198208C0F8
:101B00008DE3898305C08BE2898302C08A81898342
:101B100089810F900F900F900F90CF91DF910895D2
:101B2000DF93CF93CDB7DEB72E970FB6F894DEBF15
:101B30000FBECDBF80E061E041E00E94BE0880E0C2
:101B400062E041E00E94BE0880E090E0A0EAB1E4DB
:101B50008B879C87AD87BE876B857C858D859E85B1
:101B600020E030E04AE755E40E941F02DC01CB018F
:101B70008F839887A987BA876F81788589859A85A9
:101B800020E030E040E85FE30E94790388232CF4F2
:101B900081E090E09E838D833FC06F817885898549
:101BA0009A8520E03FEF4FE757E40E94190318168B
:101BB0004CF56B857C858D859E8520E030E040E28C
:101BC00051E40E941F02DC01CB01BC01CD010E9447
:101BD0004900DC01CB019E838D830FC080E991E039
:101BE0009C838B838B819C810197F1F79C838B83F2
:101BF0008D819E8101979E838D838D819E8100972B
:101C000069F714C06F81788589859A850E9449009B
:101C1000DC01CB019E838D838D819E819A83898394
:101C200089819A810197F1F79A83898380E063E043
:101C300041E00E94BE0880E064E041E00E94BE08EE
:101C400080E065E041E00E94BE0880E066E041E09F
:101C50000E94BE0883E30E94420E82E30E94420E6D
:101C600088E20E94420E8CE00E94420E81E00E94B7
:101C7000420E2E960FB6F894DEBF0FBECDBFCF91A9
:101C8000DF9108950F931F93DF93CF93CDB7DEB706
:101C9000C356D0400FB6F894DEBF0FBECDBFFE01D5
:101CA000ED59FF4F808380E061E040E00E94A90988
:101CB000FE01E15AFF4F80E090E0A0E8BFE380839F
:101CC0009183A283B3838E01055A1F4FFE01E15A0F
:101CD000FF4F608171818281938120E030E04AE78B
:101CE00055E40E941F02DC01CB01F801808391833F
:101CF000A283B383FE01E55AFF4F60817181828127
:101D0000938120E030E040E85FE30E94790388237C
:101D100044F4FE01E75AFF4F81E090E09183808315
:101D200064C0FE01E55AFF4F608171818281938119
:101D300020E03FEF4FE757E40E94190318160CF01C
:101D400043C0FE01E15AFF4F60817181828193811E
:101D500020E030E040E251E40E941F02DC01CB01B0
:101D60008E01075A1F4FBC01CD010E944900DC01C2
:101D7000CB01F801918380831FC0FE01E95AFF4F18
:101D800080E991E091838083FE01E95AFF4F8081D1
:101D900091810197F1F7FE01E95AFF4F918380830A
:101DA000DE01A75ABF4FFE01E75AFF4F80819181A4
:101DB000019711969C938E93FE01E75AFF4F808105
:101DC00091810097D1F627C08E01075A1F4FFE015F
:101DD000E55AFF4F60817181828193810E944900A1
:101DE000DC01CB01F80191838083DE01AB5ABF4F48
:101DF000FE01E75AFF4F808191818D939C93FE01F4
:101E0000EB5AFF4F808191810197F1F7FE01EB5A68
:101E1000FF4F9183808380E062E041E00E94A90946
:101E2000FE01EF5AFF4F80E090E0A0E8BFE380831F
:101E30009183A283B3838E01035B1F4FFE01EF5A90
:101E4000FF4F608171818281938120E030E04AE719
:101E500055E40E941F02DC01CB01F80180839183CD
:101E6000A283B383FE01E35BFF4F608171818281B6
:101E7000938120E030E040E85FE30E94790388230B
:101E800044F4FE01E55BFF4F81E090E091838083A5
:101E900064C0FE01E35BFF4F6081718182819381A9
:101EA00020E03FEF4FE757E40E94190318160CF0AB
:101EB00043C0FE01EF5AFF4F60817181828193819F
:101EC00020E030E040E251E40E941F02DC01CB013F
:101ED0008E01055B1F4FBC01CD010E944900DC0152
:101EE000CB01F801918380831FC0FE01E75BFF4FA8
:101EF00080E991E091838083FE01E75BFF4F808161
:101F000091810197F1F7FE01E75BFF4F9183808399
:101F1000DE01A55BBF4FFE01E55BFF4F8081918134
:101F2000019711969C938E93FE01E55BFF4F808194
:101F300091810097D1F627C08E01055B1F4FFE01EE
:101F4000E35BFF4F60817181828193810E94490030
:101F5000DC01CB01F80191838083DE01A95BBF4FD7
:101F6000FE01E55BFF4F808191818D939C93FE0183
:101F7000E95BFF4F808191810197F1F7FE01E95BF9
:101F8000FF4F91838083FE01ED59FF4F8081882FA1
:101F900090E080719070959587959595879595952A
:101FA000879595958795982F80E063E0492F0E944B
:101FB000A909FE01ED59FF4F8081882F90E08072C2
:101FC0009070959587959595879595958795959515
:101FD000879595958795982F80E064E0492F0E941A
:101FE000A909FE01ED59FF4F8081882F90E0807490
:101FF0009070082E892F000C881F990B000C881FE9
:10200000991F982F80E065E0492F0E94A909FE01E1
:10201000ED59FF4F8081982F991F9927991F80E0D4
:1020200066E0492F0E94A909FE01ED5BFF4F80E0A9
:1020300090E0A0E8BFE380839183A283B3838E0105
:10204000015C1F4FFE01ED5BFF4F6081718182815A
:10205000938120E030E04AE755E40E941F02DC0152
:10206000CB01F80180839183A283B383FE01FF96A5
:10207000608171818281938120E030E040E85FE3FC
:102080000E94790388232CF481E090E09EAF8DAF0D
:1020900046C0FE01FF96608171818281938120E0BC
:1020A0003FEF4FE757E40E941903181664F5FE014D
:1020B000ED5BFF4F608171818281938120E030E090
:1020C00040E251E40E941F02DC01CB01BC01CD01C2
:1020D0000E944900DC01CB019EAF8DAF0FC080E9AB
:1020E00091E09CAF8BAF8BAD9CAD0197F1F79CAFAE
:1020F0008BAF8DAD9EAD01979EAF8DAF8DAD9EAD7B
:10210000009769F716C0FE01FF9660817181828198
:1021100093810E944900DC01CB019EAF8DAF8DAD54
:102120009EAD9AAF89AF89AD9AAD0197F1F79AAF9D
:1021300089AF80E062E040E00E94A90980E090E081
:10214000A0E8BFE38DAB9EABAFABB8AF6DA97EA9E6
:102150008FA998AD20E030E04AE755E40E941F02C5
:10216000DC01CB0189AB9AABABABBCAB69A97AA95B
:102170008BA99CA920E030E040E85FE30E9479034E
:1021800088232CF481E090E098AB8FA73FC069A929
:102190007AA98BA99CA920E03FEF4FE757E40E9462
:1021A000190318164CF56DA97EA98FA998AD20E0EA
:1021B00030E040E251E40E941F02DC01CB01BC018F
:1021C000CD010E944900DC01CB0198AB8FA70FC065
:1021D00080E991E09EA78DA78DA59EA50197F1F7B7
:1021E0009EA78DA78FA598A9019798AB8FA78FA5BC
:1021F00098A9009769F714C069A97AA98BA99CA925
:102200000E944900DC01CB0198AB8FA78FA598A94C
:102210009CA78BA78BA59CA50197F1F79CA78BA7E3
:1022200080E062E041E00E94A90980E090E0A0E83F
:10223000BFE38FA398A7A9A7BAA76FA178A589A57F
:102240009AA520E030E04AE755E40E941F02DC0135
:10225000CB018BA39CA3ADA3BEA36BA17CA18DA13D
:102260009EA120E030E040E85FE30E9479038823EC
:102270002CF481E090E09AA389A33FC06BA17CA1DC
:102280008DA19EA120E03FEF4FE757E40E94190384
:1022900018164CF56FA178A589A59AA520E030E025
:1022A00040E251E40E941F02DC01CB01BC01CD01E0
:1022B0000E944900DC01CB019AA389A30FC080E9E9
:1022C00091E098A38F8F8F8D98A10197F1F798A334
:1022D0008F8F89A19AA101979AA389A389A19AA115
:1022E000009769F714C06BA17CA18DA19EA10E94EB
:1022F0004900DC01CB019AA389A389A19AA19E8FF1
:102300008D8F8D8D9E8D0197F1F79E8F8D8FFE01A4
:10231000ED59FF4F8081982F917080E063E0492F45
:102320000E94A909FE01ED59FF4F8081882F90E09E
:102330008270907095958795982F80E064E0492F82
:102340000E94A909FE01ED59FF4F8081882F90E07E
:10235000847090709595879595958795982F80E0D6
:1023600065E0492F0E94A909FE01ED59FF4F8081C8
:10237000882F90E0887090709595879595958795B2
:1023800095958795982F80E066E0492F0E94A909CE
:1023900080E090E0A0E8BFE3898F9A8FAB8FBC8F7D
:1023A000698D7A8D8B8D9C8D20E030E04AE755E475
:1023B0000E941F02DC01CB018D8B9E8BAF8BB88FEF
:1023C0006D897E898F89988D20E030E040E85FE359
:1023D0000E94790388232CF481E090E09C8B8B8B06
:1023E0003FC06D897E898F89988D20E03FEF4FE750
:1023F00057E40E94190318164CF5698D7A8D8B8D60
:102400009C8D20E030E040E251E40E941F02DC019C
:10241000CB01BC01CD010E944900DC01CB019C8BAA
:102420008B8B0FC080E991E09A8B898B89899A897F
:102430000197F1F79A8B898B8B899C8901979C8BEB
:102440008B8B8B899C89009769F714C06D897E8975
:102450008F89988D0E944900DC01CB019C8B8B8B6E
:102460008B899C89988B8F878F8598890197F1F745
:10247000988B8F8780E062E040E00E94A90980E0AD
:1024800090E0A0E8BFE38B879C87AD87BE876B8514
:102490007C858D859E8520E030E04AE755E40E94EA
:1024A0001F02DC01CB018F839887A987BA876F81D0
:1024B000788589859A8520E030E040E85FE30E94D6
:1024C000790388232CF481E090E09E838D833FC0C4
:1024D0006F81788589859A8520E03FEF4FE757E443
:1024E0000E94190318164CF56B857C858D859E8599
:1024F00020E030E040E251E40E941F02DC01CB0109
:10250000BC01CD010E944900DC01CB019E838D837B
:102510000FC080E991E09C838B838B819C81019724
:10252000F1F79C838B838D819E8101979E838D83A0
:102530008D819E81009769F714C06F8178858985A8
:102540009A850E944900DC01CB019E838D838D8199
:102550009E819A83898389819A810197F1F79A8371
:102560008983CD59DF4F0FB6F894DEBF0FBECDBFC4
:10257000CF91DF911F910F9108950F931F93DF93D8
:10258000CF93CDB7DEB7C356D0400FB6F894DEBFB9
:102590000FBECDBFFE01ED59FF4F808380E061E0AB
:1025A00041E00E94A909FE01E15AFF4F80E090E05E
:1025B000A0E8BFE380839183A283B3838E01055A91
:1025C0001F4FFE01E15AFF4F60817181828193812B
:1025D00020E030E04AE755E40E941F02DC01CB0115
:1025E000F80180839183A283B383FE01E55AFF4FF4
:1025F000608171818281938120E030E040E85FE377
:102600000E947903882344F4FE01E75AFF4F81E0DA
:1026100090E09183808364C0FE01E55AFF4F6081A2
:1026200071818281938120E03FEF4FE757E40E9460
:10263000190318160CF043C0FE01E15AFF4F6081E8
:1026400071818281938120E030E040E251E40E9478
:102650001F02DC01CB018E01075A1F4FBC01CD01C7
:102660000E944900DC01CB01F801918380831FC0E7
:10267000FE01E95AFF4F80E991E091838083FE01DA
:10268000E95AFF4F808191810197F1F7FE01E95AE4
:10269000FF4F91838083DE01A75ABF4FFE01E75AA7
:1026A000FF4F80819181019711969C938E93FE013B
:1026B000E75AFF4F808191810097D1F627C08E01A4
:1026C000075A1F4FFE01E55AFF4F608171818281D9
:1026D00093810E944900DC01CB01F8019183808342
:1026E000DE01AB5ABF4FFE01E75AFF4F8081918157
:1026F0008D939C93FE01EB5AFF4F8081918101974E
:10270000F1F7FE01EB5AFF4F9183808380E062E096
:1027100041E00E94A909FE01EF5AFF4F80E090E0DE
:10272000A0E8BFE380839183A283B3838E01035B20
:102730001F4FFE01EF5AFF4F6081718182819381AB
:1027400020E030E04AE755E40E941F02DC01CB01A3
:10275000F80180839183A283B383FE01E35BFF4F83
:10276000608171818281938120E030E040E85FE305
:102770000E947903882344F4FE01E55BFF4F81E06A
:1027800090E09183808364C0FE01E35BFF4F608132
:1027900071818281938120E03FEF4FE757E40E94EF
:1027A000190318160CF043C0FE01EF5AFF4F608169
:1027B00071818281938120E030E040E251E40E9407
:1027C0001F02DC01CB018E01055B1F4FBC01CD0157
:1027D0000E944900DC01CB01F801918380831FC076
:1027E000FE01E75BFF4F80E991E091838083FE016A
:1027F000E75BFF4F808191810197F1F7FE01E75B75
:10280000FF4F91838083DE01A55BBF4FFE01E55B37
:10281000FF4F80819181019711969C938E93FE01C9
:10282000E55BFF4F808191810097D1F627C08E0133
:10283000055B1F4FFE01E35BFF4F60817181828169
:1028400093810E944900DC01CB01F80191838083D0
:10285000DE01A95BBF4FFE01E55BFF4F80819181E7
:102860008D939C93FE01E95BFF4F808191810197DD
:10287000F1F7FE01E95BFF4F91838083FE01ED5983
:10288000FF4F8081882F90E080719070959587959B
:10289000959587959595879595958795982F80E03F
:1028A00063E0492F0E94A909FE01ED59FF4F808185
:1028B000882F90E080729070959587959595879573
:1028C000959587959595879595958795982F80E00F
:1028D00064E0492F0E94A909FE01ED59FF4F808154
:1028E000882F90E080749070082E892F000C881F2C
:1028F000990B000C881F991F982F80E065E0492FE5
:102900000E94A909FE01ED59FF4F8081982F991F60
:102910009927991F80E066E0492F0E94A909FE01CE
:10292000ED5BFF4F80E090E0A0E8BFE38083918300
:10293000A283B3838E01015C1F4FFE01ED5BFF4F4D
:10294000608171818281938120E030E04AE755E423
:102950000E941F02DC01CB01F80180839183A283D6
:10296000B383FE01FF96608171818281938120E0B3
:1029700030E040E85FE30E94790388232CF481E093
:1029800090E09EAF8DAF46C0FE01FF9660817181E1
:102990008281938120E03FEF4FE757E40E941903C3
:1029A000181664F5FE01ED5BFF4F60817181828135
:1029B000938120E030E040E251E40E941F02DC01FC
:1029C000CB01BC01CD010E944900DC01CB019EAFCF
:1029D0008DAF0FC080E991E09CAF8BAF8BAD9CAD0C
:1029E0000197F1F79CAF8BAF8DAD9EAD01979EAF78
:1029F0008DAF8DAD9EAD009769F716C0FE01FF96B5
:102A000060817181828193810E944900DC01CB0148
:102A10009EAF8DAF8DAD9EAD9AAF89AF89AD9AADAA
:102A20000197F1F79AAF89AF80E062E040E00E9441
:102A3000A90980E090E0A0E8BFE38DAB9EABAFAB0F
:102A4000B8AF6DA97EA98FA998AD20E030E04AE724
:102A500055E40E941F02DC01CB0189AB9AABABAB02
:102A6000BCAB69A97AA98BA99CA920E030E040E819
:102A70005FE30E94790388232CF481E090E098AB17
:102A80008FA73FC069A97AA98BA99CA920E03FEF35
:102A90004FE757E40E94190318164CF56DA97EA95B
:102AA0008FA998AD20E030E040E251E40E941F027F
:102AB000DC01CB01BC01CD010E944900DC01CB014E
:102AC00098AB8FA70FC080E991E09EA78DA78DA539
:102AD0009EA50197F1F79EA78DA78FA598A90197AD
:102AE00098AB8FA78FA598A9009769F714C069A91B
:102AF0007AA98BA99CA90E944900DC01CB0198AB63
:102B00008FA78FA598A99CA78BA78BA59CA501979C
:102B1000F1F79CA78BA780E062E041E00E94A90941
:102B200080E090E0A0E8BFE38FA398A7A9A7BAA789
:102B30006FA178A589A59AA520E030E04AE755E481
:102B40000E941F02DC01CB018BA39CA3ADA3BEA3FB
:102B50006BA17CA18DA19EA120E030E040E85FE365
:102B60000E94790388232CF481E090E09AA389A342
:102B70003FC06BA17CA18DA19EA120E03FEF4FE75C
:102B800057E40E94190318164CF56FA178A589A582
:102B90009AA520E030E040E251E40E941F02DC01EF
:102BA000CB01BC01CD010E944900DC01CB019AA3FD
:102BB00089A30FC080E991E098A38F8F8F8D98A192
:102BC0000197F1F798A38F8F89A19AA101979AA3F2
:102BD00089A389A19AA1009769F714C06BA17CA170
:102BE0008DA19EA10E944900DC01CB019AA389A37B
:102BF00089A19AA19E8F8D8F8D8D9E8D0197F1F762
:102C00009E8F8D8FFE01ED59FF4F8081982F91701F
:102C100080E063E0492F0E94A909FE01ED59FF4FB2
:102C20008081882F90E08270907095958795982F7D
:102C300080E064E0492F0E94A909FE01ED59FF4F91
:102C40008081882F90E084709070959587959595F8
:102C50008795982F80E065E0492F0E94A909FE0121
:102C6000ED59FF4F8081882F90E088709070959586
:102C700087959595879595958795982F80E066E03F
:102C8000492F0E94A90980E090E0A0E8BFE3898F66
:102C90009A8FAB8FBC8F698D7A8D8B8D9C8D20E048
:102CA00030E04AE755E40E941F02DC01CB018D8B26
:102CB0009E8BAF8BB88F6D897E898F89988D20E030
:102CC00030E040E85FE30E94790388232CF481E040
:102CD00090E09C8B8B8B3FC06D897E898F89988D0E
:102CE00020E03FEF4FE757E40E94190318164CF518
:102CF000698D7A8D8B8D9C8D20E030E040E251E42F
:102D00000E941F02DC01CB01BC01CD010E944900E1
:102D1000DC01CB019C8B8B8B0FC080E991E09A8BFF
:102D2000898B89899A890197F1F79A8B898B8B898D
:102D30009C8901979C8B8B8B8B899C89009769F769
:102D400014C06D897E898F89988D0E944900DC01AD
:102D5000CB019C8B8B8B8B899C89988B8F878F85E4
:102D600098890197F1F7988B8F8780E062E040E0C7
:102D70000E94A90980E090E0A0E8BFE38B879C87D0
:102D8000AD87BE876B857C858D859E8520E030E094
:102D90004AE755E40E941F02DC01CB018F8398872C
:102DA000A987BA876F81788589859A8520E030E088
:102DB00040E85FE30E94790388232CF481E090E0EF
:102DC0009E838D833FC06F81788589859A8520E0B9
:102DD0003FEF4FE757E40E94190318164CF56B8537
:102DE0007C858D859E8520E030E040E251E40E94A4
:102DF0001F02DC01CB01BC01CD010E944900DC01B6
:102E0000CB019E838D830FC080E991E09C838B83EF
:102E10008B819C810197F1F79C838B838D819E81AF
:102E200001979E838D838D819E81009769F714C0E1
:102E30006F81788589859A850E944900DC01CB01E4
:102E40009E838D838D819E819A83898389819A81D6
:102E50000197F1F79A838983CD59DF4F0FB6F89424
:102E6000DEBF0FBECDBFCF91DF911F910F910895AF
:102E7000DF93CF9300D00F92CDB7DEB79B838A83C9
:102E800019820EC08981282F30E08A819B81FC0144
:102E9000E20FF31F80810E94BD1289818F5F8983B9
:102EA0008981282F30E08A819B81FC01E20FF31F8A
:102EB0008081882339F70F900F900F90CF91DF9189
:102EC0000895DF93CF9300D000D00F92CDB7DEB737
:102ED0008A836B838A81282F30E03D832C838C8109
:102EE0009D8181309105C1F02C813D8122303105D9
:102EF0002CF48C819D81009761F019C02C813D815B
:102F00002230310569F08C819D818330910561F01B
:102F10000EC08B8189830BC08B81805C898307C045
:102F20008B81805F898303C08B81805B89838981EA
:102F300080680E94420E0F900F900F900F900F909C
:102F4000CF91DF910895DF93CF9300D000D0CDB71C
:102F5000DEB789836A835C834B8389816A810E949F
:102F600061178B819C810E9438170F900F900F90F2
:102F70000F90CF91DF910895DF93CF93CDB7DEB758
:102F800062970FB6F894DEBF0FBECDBF9A8B898BC8
:102F900089899A899E012F5F3F4FB9014AE050E02D
:102FA0000E944718CE0101960E94381762960FB60C
:102FB000F894DEBF0FBECDBFCF91DF910895DF93B0
:102FC000CF93CDB7DEB781E00E94420ECF91DF9163
:102FD000089597FB092E07260AD077FD04D00CD060
:102FE00006D000201AF4709561957F4F0895F6F78A
:102FF000909581959F4F0895AA1BBB1B51E107C077
:10300000AA1FBB1FA617B70710F0A61BB70B881F78
:10301000991F5A95A9F780959095BC01CD01089507
:103020002F923F924F925F926F927F928F929F92D8
:10303000AF92BF92CF92DF92EF92FF920F931F93C6
:10304000CF93DF93CDB7DEB7CA1BDB0B0FB6F89477
:10305000DEBF0FBECDBF09942A88398848885F84B7
:103060006E847D848C849B84AA84B984C884DF8028
:10307000EE80FD800C811B81AA81B981CE0FD11D0C
:103080000FB6F894DEBF0FBECDBFED010895FB0172
:103090009F01E8944230C4F04532B4F44A3029F438
:1030A00097FB1EF4909581959F4F642F77270E9480
:1030B000FC17805D8A330CF0895D8193CB0100970A
:1030C000A1F716F45DE251931082C9010C946818BF
:1030D000DC01FC01672F71917723E1F7329704C07F
:1030E0007C916D9370836291AE17BF07C8F308950A
:0430F000F894FFCF82
:1030F400204C43442043616C63756C61746F72208F
:10310400003D0020202020202020202020202020DE
:10311400202020004572726F723A204469766973E8
:10312400696F6E206279207A65726F0A0000000070
:0631340000000000000095
:00000001FF
